:020000040000FA
:06000000EDEF0AF0120012
:020006000000F8
:0800080040EC05F0FB0EDBCF1C
:10001000F3FFDB06F35000090AE08EEC05F0FA0E60
:10002000F9EC05F0F3E1151CF1E1010E01D0000E31
:100030006FEF05F040EC05F03B0EE12402E3E168D0
:10004000E652E16E010EDB6A020EDB6AF90EDBCFCF
:10005000F6FFFA0EDBCFF7FFFB0EDBCFF8FF080051
:10006000F550DF6EDF5002E193EF04F0250EDF5C08
:1000700002E086EF04F0030EDB6A040EDB6A050E75
:10008000DB6A060EDB6A070EDB6AA8EC04F02D0EB5
:10009000DF5C0CE02B0EDF5C09E0200EDF5C06E08D
:1000A000230EDF5C03E0300EDF5C1AE1DF50300A24
:1000B00014E0130A0FE0030A0AE00B0A05E0060A3F
:1000C000E4E1030EDB80E1D7030EDB82DED7030E13
:1000D000DB84DBD7030EDB86D8D7030EDB88D5D7CE
:1000E0002A0EDF5C1BE1A4EC04F0F2EC04F010E05B
:1000F000030EDB8008680968130EDBCF0DF0140EC9
:10010000DBCF0EF0F5EC08F0040E06C0DBFF03D0E9
:10011000130EDBEC04F0A8EC04F00BD0090EDB6A44
:1001200049EC05F003E0BDEC05F0FAD7090EDBEC75
:1001300004F0030EDBB0DB982E0EDF5C1BE1A8ECB5
:1001400004F02A0EDF5C0BE1A4EC04F0F2EC04F006
:1001500003E1130E2DEC05F0A8EC04F00BD0090E12
:10016000DB6A49EC05F003E0BDEC05F0FAD7090EB7
:100170002DEC05F0680EDF5C07E1A8EC04F0680EDA
:10018000DF5C1DE1030E18D0740EDF5C17E07A0E01
:10019000DF5C14E0480EDF5C06E0540EDF5C03E039
:1001A0005A0EDF5C02E1020E07D06C0EDF5C03E04A
:1001B0006A0EDF5C04E1010E80EC05F0C9DBDF5064
:1001C0006E0A01E17FD31E0A01E192D1200A01E10A
:1001D0008FD13F0A01E149D11A0A01E146D10D0A46
:1001E00001E143D1200A01E140D13A0A01E13DD1C8
:1001F000200A01E13AD1260A01E135D10D0A01E1D7
:1002000032D11A0A01E1D9D0200A4AE0300A1FE0AF
:10021000460A0EE0250A01E083D3D950F90FE96EB2
:10022000FF0EDA20EA6E010EEE5E000EEE5AEE5A76
:100230008EEC05F0250EE66E95DB03E1151C01E161
:1002400069D38AEC05F001E26BD3DB2A69D3080E8F
:10025000DB6A040EDB50010806E2040EDB0452ECFC
:1002600005F0DB508BDB080EDB5009E0030EDB50A2
:10027000010B05E172DB01E04DD3080EDB6A64DBA4
:10028000EFCFDFFF02EC06F003E1151C01E142D3E2
:100290008AEC05F001E3DB2A60DB01E141D33AD3CC
:1002A000070EDB5002080FE1CEEC05F0030E95ECD3
:1002B00005F00E0EEECFDBFF0F0EEECFDBFF100EC4
:1002C000EECFDBFF20D0F70EDBCF17F0F80EDBCF41
:1002D00018F0020E175E000E185AF70E17C0DBFF5B
:1002E000F80E18C0DBFF17C0E9FF18C0EAFF85EC65
:1002F00005F0166A0E0E14C0DBFF0F0E15C0DBFFF3
:10030000100E16C0DBFF0E0EDBCFE6FF0F0EDBCFAD
:10031000E6FF100EDBCFE6FF4FEC0AF0E552E552A8
:10032000E552130E07C0DBFF140E08C0DBFF060EFC
:10033000DB5005E0130EC9EC05F001E26ADBEDECE1
:1003400005F002E2130E37DBB0EC05F006E0040E18
:10035000C9EC05F002E2050E2EDB030EDBB005D082
:10036000FCDA01E0D7D2080EDB6A090EDB6A0E0E5A
:10037000DBCFF6FF0F0EDBCFF7FF100EDBCFF8FF62
:100380000800F550DF6EDF5014E0F3EC05F011E2E9
:1003900002EC06F003E1151C01E1BCD2BBDB01E37A
:1003A000DB2A090EDB2AD9500E0FE96E000ECBDBDB
:1003B000E7D7D3DA01E1B4D2ADD2C6DA110EEECF6F
:1003C000DBFF120EEDCFDBFF110EDBCFE6FF120ECF
:1003D000DBCFE6FF41EC0AF0E552E552130EF3CF16
:1003E000DBFF140EF4CFDBFF060EDB5004E0130E30
:1003F000D0DB01E20EDBEDEC05F002E2130EDBDAFE
:10040000AFDB05E0040EC5DB02E2050ED4DA030E15
:10041000DBB005D0A2DA01E07DD2080EDB6A090E5E
:10042000DB6A110EDBCFE9FF120EDBCFEAFFEFCF65
:10043000DFFFDF5014E0D7DB12E2E4DB03E1151C41
:1004400001E168D267DB01E3DB2A090EDB2A110E2A
:10045000DB2ADBCFE9FF120EE8E3DB2AE6D77DDA01
:1004600001E15ED257D2030EDB8E070EDB0410E1F2
:1004700095DB040E5ADB0A0EEECFDBFF0B0EEECF40
:10048000DBFF0C0EEECFDBFF0D0EEECFDBFF6CD0F3
:10049000070EDB5003082CE1030EDBAE0DD0B2DA01
:1004A000020E76DAEFCF14F0156A166A176A14AEE8
:1004B00039D01568166835D0F70EDBCF15F0F80E79
:1004C000DBCF16F0020E155E000E165AF70E15C0A1
:1004D000DBFFF80E16C0DBFF15C0E9FF16C0EAFF10
:1004E000EFCF14F00A0E14C0DBFF0B0EDB6A38D01E
:1004F000070EDB50020809E1030EDBAE04D059DB26
:1005000016AE10D00ED055DB0DD0030EDBAE12D0E0
:1005100079DA020E3DDAF9DA166A176A15AE02D0F8
:1005200016681768E2DA0C0E16C0DBFF0D0E17C056
:10053000DBFF1AD0F70EDBCF16F0F80EDBCF17F08B
:10054000020E165E000E175AF70E16C0DBFFF80EED
:1005500017C0DBFF16C0E9FF17C0EAFFD6DAC5DA1D
:100560000C0EDB6A0D0EDB6A060EDB5005E1010E98
:10057000F36E050EF3CFDBFF150EDB6A160EDB6A9A
:10058000D950370F146E000EDA20156E390E14C0D4
:10059000DBFF3A0E15C0DBFF380EDB6A080EDB6AA4
:1005A0000A0EAEDADF50780A12E0200A10E0280ABC
:1005B0000CE0200A0AE03F0A06E00D0A02E0200AE9
:1005C00008E1020E05D0080E03D0080EDF26100E3B
:1005D00097DA030EDBBE02D0DB92DB94DB50800B9C
:1005E00024E08ADAD890030EEB50000A08E6000EE9
:1005F000EE5C000EEE58000EEE58000EEE5815E2BE
:1006000013DA0B680C680D680E6809EC0AF00A0E24
:1006100002C0DBFF0B0E03C0DBFF0C0E04C0DBFFD0
:100620000D0E05C0DBFF2D0E08D0030EDBA202D09D
:100630002B0E03D0DBA408D0200EF36E170EF3CFE1
:10064000DBFF150EDB2A02D0170EDB6A050EDB502E
:1006500003E1B7D901E189D0120E146E160E156EA2
:10066000000E166E070EDBCF17F0186A196A1A6AA9
:1006700017C00BF018C00CF019C00DF01AC00EF026
:10068000D3D974EC0AF014500224F36E15500320F1
:10069000F46E16500420F86EF4CFF7FFF3CFF6FF98
:1006A0000800090EF5CFDBFF580EDF5C0FE1610E8D
:1006B000F36E090E7BD90AE3200E146E090EDBCF10
:1006C000E7FF1450E75E090EE7CFDBFF070EDBCF35
:1006D00014F0156A166A176A0FDA14C00BF015C009
:1006E0000CF016C00DF017C00EF0EECF06F0EECFF6
:1006F00007F0EECF08F0EFCF09F074EC0AF009C074
:10070000EDFF08C0EDFF07C0EDFF06C0EFFF390E9B
:10071000DBCFE9FFDB063A0EDBCFEAFF01E2DB06C7
:10072000090EDBCFEFFF150EDB2A4BD995E1030E47
:10073000DBA61DD06F0EDF5C06E1C1D918E3150EF4
:10074000DB285BDA14D0780EDF5C09E0580EDF5C42
:1007500006E0620EDF5C03E0420EDF5C08E1020EA1
:10076000F36E160EF3CFDBFF02D0150EDB6A030E1D
:10077000DB50100B0EE0040EDBCF14F0050EDB5047
:10078000D880145406E2060EDB5003E1040EDB5061
:1007900034DA95D90AE2050EDBCFE7FF150EDB5000
:1007A000E75E050EE7CFDBFF02D0050EDB6A040E25
:1007B000DBCF14F0160E45D9D880145414E2160E6F
:1007C000DBCFE6FF150EDBCFE6FF040EDBCFE6FF47
:1007D000050EDB50E552E75CE552D880E754E55260
:1007E000D880E7545FD9030EDB50010B0BE1080EF4
:1007F000DB5008E0B2D801E08DD0080EDB50BED847
:10080000080EDB6A170EDB5007E088D9170EF1D906
:1008100003E1151C01E17ED0160EDB5016E07ED9F7
:10082000300EE66E9FD802E1151C74E077D9DFCF59
:10083000E6FFC7EC09F0E552E552E552F4CF15F0BA
:100840000001F31C02E1151C65E0050EDBCF14F07E
:10085000160EDB50D880145409E2050EDBCFE7FFFB
:10086000160EDB50E75E050EE7CFDBFF300EE66EBF
:10087000050ECBD94FE1390EDB2ADBCFE9FF3A0E6B
:1008800001E3DB2ADBCFEAFF090EEFCFDBFFDB5012
:100890000EE044D9090EADD902E1151C3BE0390E3A
:1008A000DB2ADBCFE9FF3A0EEDE3DB2AEBD755D8A5
:1008B00031E1160EDBCFE6FF080EC3D8E552E72480
:1008C0005DD82ED0070EDB50030A1CE0010A14E0AD
:1008D000030A07E07BD9DBCFEEFF020EDBCFEDFF93
:1008E0001FD0F5D8196A17AE02D0186819682CD82D
:1008F000BCD819C0EEFF14D0EAD817BE186824D8A7
:10090000B4D80ED063D9DBCFEFFF0AD07BD905E195
:10091000151C03E1F368F46810D0FCD801E3DB2A6E
:1009200079D92FEF00F0010EDBCF14F0020EDBCFF0
:1009300015F014C0F3FF15C0F4FF3B0EE15C02E2BA
:10094000E16AE552E16ECBD029D9020E95EF05F0B0
:1009500061D90800F550DF6E1200200EE66E080E19
:1009600005EF06F0C7EC09F0E552E552E552F3CF8A
:1009700014F0F4CF15F00001F31C1200146E156A88
:10098000D950010F4DD91450EE261550ED2212000A
:10099000185E000E195AF70E18C0DBFFF80E19C0CA
:1009A000DBFF18C0E9FF19C0EAFF1200DBCFF4FF3C
:1009B000F350F45C1200DB50E76E040EE7CFDBFF70
:1009C00012000A0EDBCF14F00B0EDBCF15F00C0E6D
:1009D000DBCF16F00D0EDBCF17F0145015101610EC
:1009E00017101200130EEECFDBFF140EEDCFDBFF5E
:1009F000130EDBCF14F0140EDBCF15F00001800EC8
:100A000015141200F70EDBCF18F0F80EDBCF19F03B
:100A10001200050EDB50E66ED950130F01D9E552D6
:100A2000E750EE6EED6A12000A0EDBCF06F00B0EF9
:100A3000DBCF07F00C0EDBCF08F00D0EDBCF09F09B
:100A40001200DBCFE6FF150EDBCFE6FF050EDB5015
:100A5000E552E724E552E7241200DB50CED8010E20
:100A6000F36E060EF3CFDBFF1200EE50EFCFEAFF7E
:100A7000E96E16C0EEFF17C0EEFF18C0EEFF1200C1
:100A8000D9CFE6FFDACFE6FFE1CFD9FFE2CFDAFF39
:100A90001200DFCFE6FFE66ACBEC0AF0E552E55242
:100AA000F3501200E76E080EE7CFDBFF1200EECF27
:100AB00014F0EECF15F0EFCF16F0176A1200050E06
:100AC000DBCF14F0150EDB50D88014541200010E49
:100AD000DBCF16F0020EDBCF17F0186A1200E552DA
:100AE000E5CFDAFFE7CFD9FF12000A0E14C0DBFF13
:100AF0000B0E15C0DBFF1200D9500A0F10EF06F0E5
:100B0000F36E070EF3CFDBFF1200EECF14F0EFCF42
:100B100015F01200010EDB2A020E1200FC0EDBCFD4
:100B2000E6FFFD0EDBCFE6FF1200145E000E155A45
:100B3000F70E14C0DBFFF80E15C0DBFF14C0E9FF91
:100B400015C0EAFF1200DA20EA6EEF2AEECFF6FFB8
:100B5000000EEF22EECFF7FFEF22EECFF8FF1200EC
:100B6000040EDBCFE6FF130EDB50E552E75C9ADFA5
:100B7000DB5004DF060EDB501200090EDB500A0DBD
:100B8000F350DF24D00FE76E090EE7CFDBFFA8EFAD
:100B900004F0DB50F36E050ED6EF04F0F70EDBCF5A
:100BA00014F0F80EDBCF15F01200DFCFE6FFB2EF46
:100BB00004F028DF030EECDE57EF05F004EC00F044
:100BC000E552E552E552E55200091200BDDEEE5055
:100BD000EFCFEAFFE96E010E1200130EDB50F36E49
:100BE000040ED6EF04F0040EDB50F36E090ED6EFC0
:100BF00004F0DBCFE6FFB2EF04F0E76E050EE7CFBF
:100C0000DBFF12008BDFD5EF05F0DBCFE6FF86DFE1
:100C1000DEEF05F0D950F90FE96EFF0EA3EF05F0F6
:0A0C2000E96E000EDA20EA6E120001
:060C2A00D9CFE6FFE1CF87
:100C3000D9FF020EE12695809582958495868C8C4D
:100C4000000000008350DF6E8C9CDF50146E156A2C
:100C5000040ED89014361536E804FBE1010E14C0DA
:100C6000DBFF8C8C000000008350DF6E8C9C000E3C
:100C7000DB98DB9ADB9CDB9EDF50146E010EDBCF32
:100C8000E7FF1450E712010EE7CFDBFF9590959236
:100C900095949596010EDB5000D0146E020EE15C27
:100CA00002E2E16AE552E16E1450E552E7CFD9FF66
:100CB0001200D9CFE6FFE1CFD9FF030EE126010EE6
:100CC000DB6A020EDB6A8C988C8AAFDFDF6ED9504C
:100CD000010FE96EDACFEAFFE80EEE1802E1030E2B
:100CE000ED1804E18A828A848A86FCD7010EDB2A09
:100CF000020E01E3DB2ADF50146E156A1450800BDC
:100D0000E4E18C9A0400010EDB6A020EDB6A030E3A
:100D1000E15C02E2E16AE552E16EE552E7CFD9FF1C
:100D20001200D9CFE6FFE1CFD9FFE652FE0EDB502D
:100D3000146E156A1450151002E08C9801D08C883E
:100D40008C9A8C8C8C968C948C928C9000000000E9
:100D50008C50DF6E000EDB90DB92DB94DB96DFCFF6
:100D600014F0FD0EDBCF15F00F0E151414108C6E61
:100D7000000000008C9CE552E552E7CFD9FF12003D
:100D8000D9D8FD0EDB50146E156A040ED8901532BA
:100D90001432E804FBE11450D6D8FD0EDB50D3D852
:100DA000CED0959E959C959A959C9590959295946C
:100DB00095968C9E8C8E8C988C9A8C9C8C8C79DFE2
:100DC000020ECFD8020ECDD8080ECBD8E66A87D84F
:100DD0000C0EC7D8E66A83D8010EE66EBDD869DF6F
:100DE000E66A7DD8020EBDD8040EBBD80E0EB9D867
:100DF00007D8E66AE66A09D8E552E5528C8E1200F9
:100E0000010EE66EE66E95EF07F094D8FD0EDB500E
:100E1000166E176A173404E216500108000E1754B4
:100E20000DE3FE0EDB50186E196A193404E21850F7
:100E30000F08000E195402E3000E01D0010E156ACE
:100E4000E850151016E1FD0EDB50166E176A010E04
:100E5000161805E1175003E187D8C00E02D084D8D8
:100E6000800E1412000E15121450E66E010EE66E7E
:100E70005CD865D05FD8FE0EDB50E66EE66A55D8CA
:100E80005ED058D848D808C014F009C015F0300E0C
:100E900008245ED840D804C014F005C015F0300E08
:100EA000042456D84CD046D8E652DF6ADF50166E7E
:100EB000176A186A17BE186816D814BE1568145039
:100EC00015100BE0DF50DF2A166E176A186A0BD870
:100ED00014BE156814503CD8E9D7E55230D0010E45
:100EE0003BD859EF06F0D950FC0FE96EFF0EDA201F
:100EF000EA6EEE501624F36EEE501720F46EEE50AC
:100F00001820F86EF4CFF7FFF3CFF6FF0800F5CF07
:100F100014F0156A120028D80A0E0D6E0E6A14C05D
:100F200008F015C009F0A2EF08F02ADFE552E552FB
:100F300059EF06F0D9CFE6FFE1CFD9FF1200E55215
:100F4000E7CFD9FF1200E66EFE0EDB50ACEF07F0E4
:100F5000E66E90DFE5521200E66EE3DEE552E55202
:100F60001200E66E6FEF07F0FE0EDB50146E156A8E
:020F700012006D
:0E0F7200D9CFE6FFE1CFD9FF0E0EE126560ED5
:100F8000D36E0F013B6B956ACF0ECD143009CD6E39
:100F9000CD80F00EBD140509BD6E4991499394842E
:100FA0003A95D1EC06F09E949E50040B01E0010EA0
:100FB000156AE8501510F8E09E94BF50E66ED950BF
:100FC000020FE96EDACFEAFFE552E750EE6EED6A06
:100FD000020EDBCF16F0030EDBCF17F0A2D8020E05
:100FE00014C0DBFF030E17C0DBFF9E50040B01E0B3
:100FF000010E146E156AE8501510F7E09E94BF506C
:10100000DE6EDD6ADECF16F0DDCF17F08AD8DE6E39
:1010100017C0DDFFDECF16F0DDCF17F0020EDB507C
:10102000165C146E030EDB501758156E040E14C0B8
:10103000DBFF050E15C0DBFF040EDBCF17F0050E3E
:10104000DBCF18F0010E0F0B05E0D89018321732E5
:10105000E806FBE1196A240E146EF40E156E166A8A
:1010600014C007F0086E16C009F017C00CF018C0C5
:101070000DF019C00EF0C8EC08F0040E07C0DBFF3D
:10108000050E08C0DBFF040EDBCFE6FF050EDBCF4D
:10109000E6FF230E146E160E156E166A14C0E6FFD8
:1010A000E66E16C0E6FF47D822EC09F0176E070E71
:1010B000E15E1750E66AE66A05EC07F0E552E55294
:1010C0003AD803D8E552E5526FD7D9CFE6FFE1CF42
:1010D000D9FFE652DF6ADF5015D814BE15681450E8
:1010E00015100BE0DF50DF2A0DD814BE1568145020
:1010F000E66E3AEC07F0E552EED7E552E552E7CF5F
:10110000D9FF1200E76EFD0EDBCFE9FFFE0EDBCF4D
:10111000EAFFE750E926000EEA22EFCF14F0156A45
:10112000120016C017F0166ABE5000011610146E99
:1011300017C015F01200D950060FE66E000EDA2027
:04114000E66E120045
:0C114400006A0EAEABEF08F00D6C0E1E42
:10115000E86A0E22001E09AEB3EF08F0086C091E03
:10116000E86A0922001EB5EC0AF009BEC3EF08F0D8
:1011700000AE000C086C091EE86A0922046C051E0A
:10118000E86A0522000C00BEBAEF08F00188FF0CE7
:10119000006A0EAED3EF08F00C6C0D1E0E1EE86A4E
:1011A0000D220E22001E09AEDDEF08F0076C081EAE
:1011B000091EE86A08220922001E98EC0AF009BEFE
:1011C000F0EF08F000AE000C076C081E091EE86A7C
:1011D00008220922036C041E051E04220522000CAD
:1011E00000BEE4EF08F00188FF0C09C013F008C04E
:1011F00012F008500D02F4CF07F0F3CF06F00950BB
:101200000E02F4CF09F0F3CF08F00D02F3500726D9
:10121000F4500822E86A092212500E02F350072601
:10122000F4500822E86A09220EAE1BEF09F01250B2
:10123000085E1350095A13AE000C0D50085E0E5094
:04124000095A000C3B
:0C124400D9CFE6FFDACFE6FFE1CFD9FFFB
:10125000E2CFDAFFE652E652E652E652D950F90FF3
:10126000146EFF0EDA20156E020E14C0DBFF030EA3
:1012700015C0DBFF020EDBCFE6FF030EDBCFE6FF80
:10128000F90EDBCFE6FFFA0EDBCFE6FFFB0EDBCF7E
:10129000E6FFD950FC0FE66EFF0EDA20E66E1AEC80
:1012A00000F0146E070EE15C02E2E16AE552E16EC5
:1012B0001450F3CFDEFFF4CFDDFFFC0EDBCFE9FFF0
:1012C000FD0EDBCFEAFFEF6ADECF14F0DDCF15F0C5
:1012D00014C0F3FF15C0F4FF040EE15C02E2E16A02
:1012E000E552E16EE552E5CFDAFFE7CFD9FF120014
:1012F000060EF66E000EF76E000EF86E0F01090076
:10130000F550056F0900F550066F03E1056701D040
:101310003DD00900F550006F0900F550016F09003C
:10132000F550026F09000900F550E96E0900F5500B
:10133000EA6E090009000900F550036F0900F55035
:10134000046F09000900F6CF07FFF7CF08FFF8CFB9
:1013500009FF00CFF6FF01CFF7FF02CFF8FF0F0123
:10136000035302E1045307E00900F550EE6E030752
:10137000F8E20407F9D707CFF6FF08CFF7FF09CF48
:0E138000F8FF0F010507000E065BBFD7120035
:02138E00D9CFB5
:10139000E6FFDACFE6FFE1CFD9FFE2CFDAFFFB0EBF
:1013A000DBCF14F0FC0EDBCF15F00001800E15141E
:1013B0001AE1FB0EDBCFE9FFFC0EDBCFEAFFEECF3D
:1013C000F3FFEDCFF4FFEE2A000EEF22F3CFE9FF9B
:1013D000F4CFEAFFFD0EDBCFEFFFEF50156AF36E9F
:1013E00015C0F4FF10D0FB0EDB50FE0806E1FD0E29
:1013F000DBCFE6FFFBEC0AF005D0FD0EDBCFE6FF0E
:1014000017EC0BF0E552E552E5CFDAFFE7CFD9FF55
:021410001200C8
:0E14120006500B02F3CF02F0F4CF03F00C02F1
:10142000F3500326000EF420046E06500D02F35014
:101430000426000EF420056E06500E02F350052619
:1014400007500B02F3500326F4500422000E05222D
:1014500007500C02F3500426F450052207500D02E9
:10146000F350052608500B02F3500426F4500522D1
:1014700008500C02F350052609500B02F3500526C4
:02148000120058
:0E148200FE0EE3CFE9FFFF0EE3CFEAFFF36AB1
:10149000F46AEE5203E0F34AF42AFBD71200FF0E7F
:1014A000E3CFF8FFE552FF0EE3CFF7FFE552FF0E63
:1014B000E3CFF6FFE552E66AE66AE66A0900F5520E
:1014C00009E0FD0EE32A05E1FE0EE32A02E1FF0E2C
:1014D000E32AF4D7FD0EE3CF07F0FE0EE3CF08F0CA
:0814E000FF0EE3CF09F012003A
:0814E800056A046A036A026A46
:1014F000200EE76ED89006360736083609360236D3
:101500000336043605360B50025C0C5003580D5060
:1015100004580E50055809E30B50025E0C50035A54
:101520000D50045A0E50055A062AE72EE4D7120031
:10153000056A046A036A180EE76ED8900736083603
:1015400009360336043605360C50035C0D5004583A
:101550000E50055807E30C50035E0D50045A0E5010
:0A156000055A072AE72EEAD7120009
:06156A00056A046A100E80
:10157000E76ED89008360936043605360D50045CFF
:101580000E50055805E30D50045E0E50055A082A0A
:06159000E72EF0D7120067
:0A159600F36AF46AFF0EE124E96E27
:1015A000FF0EE220EA6EED6607D02F0EEF6404D046
:0A15B0003A0EEF6001D0F32A12009A
:0615BA00380EF36E00EE96
:1015C00000F00F0E01D81200EA6002D0EE6AFCD7DC
:0A15D000F350E9601200EE6AFCD748
:0615DA001EEE00F02EEEF3
:1015E00000F0F86A019C78EC09F018EC0BF0B9EC0B
:0615F00007F0FBD712001A
:0A15F600FF0EE350ACBA04D0AF6A58
:10160000AB8EAC8A949CACA2FED7AD6EF36EF46A3E
:021610001200C6
:0E161200303132333435363738396162636433
:03162000656600FC
:0A162300253033642062707300006C
:02162E001200A8
:021630001200A6
:020000040030CA
:0100010028D6
:010003003CC0
:010006008574
:00000001FF
