:020000040000FA
:06000000F0EF03F0120016
:0A00060001004D0700000A0F000082
:0400100001000000EB
:0C001400560ED36E0F013B6B956A5AEC40
:1000200002F0A7EC03F00AD9E66AE66AB6EC03F040
:10003000E552E55288EC02F0FFD7D9CFE6FFE1CFD9
:10004000D9FFE66AE66A8DEC02F0E552E552460E0B
:10005000106E070E73D9FE0EDB50FF0A01E1E2D0ED
:100060000F0A01E1DBD02C0A01E1D4D00E0A01E134
:10007000CDD01A0A01E1C6D0760A01E1BFD00A0A42
:1000800001E1B8D01E0A01E1B1D00A0A01E1AAD00B
:10009000360A01E1A3D01A0A01E19CD00B0A01E162
:1000A00095D0FA0A01E18ED00E0A01E187D01D0A2F
:1000B00001E180D0070A01E179D00D0A73E03B0A23
:1000C0006DE0050A67E00F0A61E0050A5BE01B0AC4
:1000D00055E00D0A4FE0070A49E07D0A43E00B0AAC
:1000E0003DE0050A37E01F0A31E0050A2BE00E0A61
:1000F00025E0050A1FE03D0A19E0070A13E00D0A92
:100100000DE01B0A07E0050A01E090D0420E106ED8
:10011000070E8FD03E0E106E070E8BD03A0E106E6B
:10012000070E87D0360E106E070E83D0320E106E7B
:10013000070E7FD02E0E106E070E7BD0290E106E8C
:10014000070E77D0250E106E070E73D0210E106E9D
:10015000070E6FD01D0E106E070E6BD0190E106EAD
:10016000070E67D0160E106E070E63D0120E106EBB
:10017000070E5FD00E0E106E070E5BD00A0E106ECB
:10018000070E57D0060E106E070E53D0020E106EDB
:10019000070E4FD0FE0E106E060E4BD0FA0E106EEC
:1001A000060E47D0F60E106E060E43D0F20E106EFD
:1001B000060E3FD0EE0E106E060E3BD0EA0E106E0D
:1001C000060E37D0E60E106E060E33D0E20E106E1D
:1001D000060E2FD0DE0E106E060E2BD0DA0E106E2D
:1001E000060E27D0D60E106E060E23D0D20E106E3D
:1001F000060E1FD0CE0E106E060E1BD0CA0E106E4D
:10020000060E17D0C60E106E060E13D0C20E106E5C
:10021000060E0FD0BE0E106E060E0BD0BA0E106E6C
:10022000060E07D0B60E106E060E03D0B20E106E7C
:10023000060E84D8E552E7CFD9FF1200D9CFE6FFEA
:10024000E1CFD9FF0F0EE126DF68DE52730EDD6EBF
:100250007D0EF36E020EF3CFDBFFA00EF36E030EE6
:10026000F3CFDBFF8C0EF36E040EF3CFDBFF7D0EBE
:10027000F36E050EF3CFDBFF730EF36E060EF3CFB6
:10028000DBFF640EF36E070EF3CFDBFF640EF36E3D
:10029000080E6AD8090EF3CFDBFF190EF36E0A0EB3
:1002A000F3CFDBFF190EF36E0B0E5ED80C0E5CD88D
:1002B0000D0EF3CFDBFF0E0EDB6A0E0EDBCF10F060
:1002C000116A10BE1168070E105C000E115823E26F
:1002D00042D812BE136829D8B0DEE5523CD812BE0F
:1002E000136823D8010EE66EB6EC03F0E552E55232
:1002F000D950070F106EDACF11F00E0EDBCFF3FFDF
:10030000DB2AF350126E136A12BE13680ED8C9ECC2
:1003100003F0E552D2D70F0EE15C02E2E16AE5524A
:10032000E16EE552E7CFD9FF120010501224E96EBA
:1003300011501320EA6EEF50E66E1200116E126A31
:1003400010C0E6FFE66E12C0E6FFB6EC02F0E55222
:10035000E552E5521200D9CF10F0DACF11F00E0EAF
:10036000DBCF12F0136A1200F3CFDBFF320EF36E15
:02037000120079
:0E037200D9CFE6FFE1CFD9FF020EE12695803C
:100380009582958495868C8C000000008350DF6EEA
:100390008C9CDF50100D010EF3CFDBFF8C8C000026
:1003A00000008350DF6E8C9C000EDB98DB9ADB9C98
:1003B000DB9E010EDBCFE7FFDF50E712010EE7CF38
:1003C000DBFF9590959295949596010EDB5000D0A9
:1003D000106E020EE15C02E2E16AE552E16E10503D
:1003E000E552E7CFD9FF1200D9CFE6FFE1CFD9FF21
:1003F000030EE126010EDB6A020EDB6A8C988C8A02
:10040000B8DFDF6ED950010FE96EDACFEAFFE80EF0
:10041000EE1802E1030EED1804E18A828A848A86CE
:10042000FCD7010EDB2A020E01E3DB2ADFBEE8D790
:100430008C9A0400010EDB6A020EDB6A030EE15C9B
:1004400002E2E16AE552E16EE552E7CFD9FF120020
:10045000D9CFE6FFE1CFD9FFE652FE0EDB5002E036
:100460008C9801D08C888C9A8C8C8C968C948C92E5
:100470008C90000000008C50DF6E000EDB90DB9251
:10048000DB94DB96FD0EDB500F0BDF108C6E000053
:1004900000008C9CE552E552E7CFD9FF120099D8B5
:1004A000FD0EDB380F0BE66EA1D8FD0EDBCFE6FFAD
:1004B0009DD88BD0959E959C959A959C959095925C
:1004C000959495968C9E8C8E8C988C9A8C9C8C8C0A
:1004D0008BDF020E96D8020E94D8080E92D8E66AE8
:1004E00054D80C0E8ED8E66A50D8010EE66E8CD821
:1004F000E66A4BD8020E85D8040E83D80E0E81D83A
:1005000007D8E66AE66A09D8E552E5528C8E1200F1
:10051000010EE66EE66EE0EF02F05BD8FD0EDB50FA
:10052000010812E3FE0EDB500F080EE3FD0EDB04A4
:1005300004E1FE0EDB50C00903D0FE0EDB50800943
:10054000E66E010EE66E3CD840D043D8FE0EDBCFFF
:10055000E6FFE66A35D839D03CD840D80750300F8E
:100560004CD83CD80350300F48D82FD032D8E65260
:10057000DF6ADFCF10F00CD806E0DF50DF2A106E04
:1005800007D83BD8F6D7E55220D0010E04EF03F090
:10059000116A126AD950FC0FE96EFF0EDA20EA6E7A
:1005A000EE501024F36EEE501120F46EEE50122037
:1005B000F86EF4CFF7FFF3CFF6FF0800F550120006
:1005C0006EDFE552E552F4EF01F0E552E7CFD9FFD7
:1005D0001200D9CFE6FFE1CFD9FF12000A0E106E4C
:1005E0000C6EFE0EDBCF07F0FEEF03F0FE0EDBCF4E
:1005F000E6FF2EDFE552E5521200E66EA6DFE55279
:100600001200E66EC5EF02F0E66E22DFE552E5521B
:04061000F4EF01F012
:0C061400060EF66E000EF76E000EF86E7B
:100620000F010900F550056F0900F550066F03E151
:10063000056701D03DD00900F550006F0900F55065
:10064000016F0900F550026F09000900F550E96ECD
:100650000900F550EA6E090009000900F550036F22
:100660000900F550046F09000900F6CF07FFF7CF26
:1006700008FFF8CF09FF00CFF6FF01CFF7FF02CF49
:10068000F8FF0F01035302E1045307E00900F5509E
:10069000EE6E0307F8E20407F9D707CFF6FF08CF9D
:1006A000F7FF09CFF8FF0F010507000E065BBFD764
:0206B000120036
:0E06B2002D2D2D004233200043342000433410
:1006C00023004434200044342300453420004634C1
:1006D00020004634230047342000473423004134AF
:1006E00020004134230042342000433520004335AC
:1006F000230044352000443523004535200046358D
:10070000200046352300473520004735230041357A
:100710002000413523004336004436200044362370
:100720000046362000473620004723362000413659
:100730002000433720004437230046372300423748
:0D0740002000443823004E6F74653A2000FD
:01074D0005A6
:02074E00948491
:100750000C0EBD6EBD9ABD980F01010E496F7E90C3
:10076000020E516F51857EA0FED71200D9CFE6FF51
:10077000E1CFD9FFFD0EDBCF52FF0ACFBEFFFE0E49
:10078000DB5002E0949401D09484E552E7CFD9FF86
:02079000120055
:0E079200FF0EE350156EEF0E01D0F30EE76E72
:1007A000E72ED0EF03F00C0E146EE76AE72ED6EFBB
:1007B00003F0142ED5EF03F0152ECEEF03F0120048
:1007C000380EF36E00EE00F00F0E01D81200EA6052
:1007D00002D0EE6AFCD7F350E9601200EE6AFCD753
:1007E0001EEE00F02EEE00F0F86A0F9C0AEC03F00B
:0C07F0000CEC04F00AEC00F0FBD7120047
:0407FC00036A080E76
:10080000E76ED890073603360C50035C02E3036EA4
:08081000072AE72EF7D71200BA
:020818001200CC
:020000040030CA
:0100010028D6
:010003003CC0
:010006008574
:00000001FF
