:020000040000FA
:06000000A8EF02F012005F
:020006000000F8
:08000800D9CFE6FFE1CFD9FFDB
:10001000020EE12695809582958495868C8C000051
:1000200000008350DF6E8C9CDF50100D010EF3CF6B
:10003000DBFF8C8C000000008350DF6E8C9C000E78
:10004000DB98DB9ADB9CDB9E010EDBCFE7FFDF500A
:10005000E712010EE7CFDBFF959095929594959668
:10006000010EDB5000D0106E020EE15C02E2E16A8C
:10007000E552E16E1050E552E7CFD9FF1200D9CF1B
:10008000E6FFE1CFD9FF030EE126010EDB6A020E87
:10009000DB6A8C988C8AB8DFDF6ED950010FE96E6D
:1000A000DACFEAFFE80EEE1802E1030EED1804E1E4
:1000B0008A828A848A86FCD7010EDB2A020E01E33B
:1000C000DB2ADFBEE8D78C9A0400010EDB6A020E41
:1000D000DB6A030EE15C02E2E16AE552E16EE552A1
:1000E000E7CFD9FF1200D9CFE6FFE1CFD9FFE65223
:1000F000FE0EDB5002E08C9801D08C888C9A8C8CA0
:100100008C968C948C928C90000000008C50DF6E4A
:10011000000EDB90DB92DB94DB96FD0EDB500F0BC9
:10012000DF108C6E000000008C9CE552E552E7CF9A
:10013000D9FF120099D8FD0EDB380F0BE66EA1D85F
:10014000FD0EDBCFE6FF9DD88BD0959E959C959AB2
:10015000959C95909592959495968C9E8C8E8C9866
:100160008C9A8C9C8C8C8BDF020E96D8020E94D8C5
:10017000080E92D8E66A54D80C0E8ED8E66A50D88B
:10018000010EE66E8CD8E66A4BD8020E85D8040EB6
:1001900083D80E0E81D807D8E66AE66A09D8E552F8
:1001A000E5528C8E1200010EE66EE66E2BEF01F02A
:1001B0005BD8FD0EDB50010812E3FE0EDB500F088A
:1001C0000EE3FD0EDB0404E1FE0EDB50C00903D09C
:1001D000FE0EDB508009E66E010EE66E3CD840D084
:1001E00043D8FE0EDBCFE6FFE66A35D839D03CD8DF
:1001F00040D80750300F4CD83CD80350300F48D867
:100200002FD032D8E652DF6ADFCF10F00CD806E0EC
:10021000DF50DF2A106E07D83BD8F6D7E55220D042
:10022000010E4FEF01F0116A126AD950FC0FE96E0E
:10023000FF0EDA20EA6EEE501024F36EEE5011201D
:10024000F46EEE501220F86EF4CFF7FFF3CFF6FF06
:100250000800F55012006EDFE552E5523FEF00F066
:10026000E552E7CFD9FF1200D9CFE6FFE1CFD9FFA2
:1002700012000A0E106E0C6EFE0EDBCF07F0B6EF0A
:1002800002F0FE0EDBCFE6FF2EDFE552E552120054
:10029000E66EA6DFE5521200E66E10EF01F0E66EA4
:0A02A00022DFE552E5523FEF00F0C7
:0602AA00B2D8020EE126AD
:1002B000560ED36E0F013B6B956A92689368010EE0
:1002C000386F396B96D8106E116A10BE116810C065
:1002D000DEFF11C0DDFFA1D80001800E11140BE17B
:1002E000DECF12F0DDCF13F0133407E21250030813
:1002F000000E135402E2DE6ADD6AA5EC00F0E66A45
:10030000E66AD8EC00F0E552E552000EDFCF06F0C9
:10031000010EDBCF07F0030E061801E107501AE0CB
:10032000020E061801E1075011E0010E061801E166
:10033000075008E006501DE107501BE1F20E106E59
:10034000040E0BD0E20E106E040E07D0D20E106E0B
:10035000040E03D0C20E106E040E116E126A10C08D
:10036000E6FFE66E12C0E6FF01EC01F0E552E55251
:10037000E5528150010B0EE150D8D890115004E69F
:10038000030E105C000E115805E2DF2A010E11E386
:10039000DB2A0FD08050100B10E13FD811340DE252
:1003A00010500008000E115408E2DF06010E01E2B1
:1003B000DB06DFCFE6FF07D8E5520F0EE66E81ECD5
:1003C00002F0E5529CD724D8A96AAA6AFE0EDB5037
:1003D000A86EA69CA69EF29EA684550EA76EAA0E97
:1003E000A76EA682A1A8FED7A694E552E7CFD9FFB3
:1003F00012000ED8E652A96AAA6AA69CA69EA680FA
:10040000A850DF6EDF50E552E552E7CFD9FF12006A
:10041000D9CFE6FFE1CFD9FF1200DECF10F0DDCF5C
:0404200011F01200C5
:0C042400060EF66E000EF76E000EF86E6D
:100430000F010900F550056F0900F550066F03E143
:10044000056701D03DD00900F550006F0900F55057
:10045000016F0900F550026F09000900F550E96EBF
:100460000900F550EA6E090009000900F550036F14
:100470000900F550046F09000900F6CF07FFF7CF18
:1004800008FFF8CF09FF00CFF6FF01CFF7FF02CF3B
:10049000F8FF0F01035302E1045307E00900F55090
:1004A000EE6E0307F8E20407F9D707CFF6FF08CF8F
:1004B000F7FF09CFF8FF0F010507000E065BBFD756
:0204C000120028
:0E04C200456E67696E6565727320726F636BBD
:1004D0002000476F20426C756520446576696C7317
:1004E0002100424D45203436342020202020202079
:1004F000200057656C636F6D6520746F206C6162BE
:020500002100D8
:0E050200FF0EE350156EEF0E01D0F30EE76E04
:10051000E72E88EF02F00C0E146EE76AE72E8EEFDE
:1005200002F0142E8DEF02F0152E86EF02F012006D
:10053000380EF36E00EE00F00F0E01D81200EA60E4
:1005400002D0EE6AFCD7F350E9601200EE6AFCD7E5
:100550001EEE00F02EEE00F0F86A0F9C12EC02F096
:0C056000C4EC02F055EC01F0FBD71200D7
:04056C00036A080E08
:10057000E76ED890073603360C50035C02E3036E37
:08058000072AE72EF7D712004D
:0205880012005F
:020000040030CA
:0100010028D6
:010003003CC0
:010006008574
:00000001FF
