:020000040000FA
:06000000D2EF00F0120037
:020006000000F8
:08000800D9CFE6FFE1CFD9FFDB
:10001000090EE1260E0EDF6EDE520B0EDD6E090EAE
:10002000F36E020EF3CFDBFF0B0EF36E030EF3CF76
:10003000DBFF0E0EF36E040EF3CFDBFF050EDB6A63
:10004000010EF36E060EF3CFDBFF630EF36E070EA9
:10005000F3CFDBFFC00EF36E080EF3CFDBFF560EBF
:10006000D36E0F01396B8A6A936AD59AD59CD5866F
:1000700033D8F2A4FED7F2942FD8050EDBCFE7FFDA
:10008000060EDB50E726050EE7CFDBFFDB500BE06B
:10009000050EDBCF00F0016A00BE0168040E0018F7
:1000A00008E1015006E1060EDBCFE7FFE76CE7CF82
:1000B000DBFFD9CF00F0DACF01F0050EDBCF02F085
:1000C000036A02BE036800500224E96E0150032057
:1000D000EA6EEF508A6ECDD7070EDB50D76E080E52
:0600E000DB50D66E120099
:0A00E600060EF66E000EF76E000E17
:1000F000F86E0F010900F550056F0900F550066F05
:1001000003E1056701D03DD00900F550006F0900FB
:10011000F550016F0900F550026F09000900F55014
:10012000E96E0900F550EA6E090009000900F55072
:10013000036F0900F550046F09000900F6CF07FFAF
:10014000F7CF08FFF8CF09FF00CFF6FF01CFF7FF89
:1001500002CFF8FF0F01035302E1045307E0090047
:10016000F550EE6E0307F8E20407F9D707CFF6FF64
:1001700008CFF7FF09CFF8FF0F010507000E065B58
:04018000BFD71200D3
:0C018400380EF36E00EE00F00F0E01D8F4
:100190001200EA6002D0EE6AFCD7F350E960120068
:0401A000EE6AFCD730
:0C01A4001EEE00F02EEE00F0F86A059C44
:1001B00073EC00F0E0EC00F004EC00F0FBD7120070
:0201C00012002B
:020000040030CA
:0100010028D6
:010003003CC0
:010006008574
:00000001FF
